:020000040800F2
:1000000000020020ED000008F1000008F3000008E5
:10001000F5000008F7000008F900000800000000E3
:10002000000000000000000000000000FB000008CD
:10003000FD00000800000000FF00000801010008AA
:100040000301000803010008030100080301000880
:100050000301000803010008030100080301000870
:100060000301000803010008030100080301000860
:100070000301000803010008030100080301000850
:100080000301000803010008030100080301000840
:100090000301000803010008030100080301000830
:1000A0000301000803010008030100080301000820
:1000B0000301000803010008030100080301000810
:1000C0000301000803010008030100080301000800
:1000D00003010008030100080301000803010008F0
:1000E0000301000803010008030100080548004758
:1000F000FEE7FEE7FEE7FEE7FEE7FEE7FEE7FEE7D8
:10010000FEE7FEE70901000800F014F800F04EF8E1
:10011000314A116821F4807111604FF01E0000F027
:1001200051F8116841F4807111604FF01E0000F029
:1001300049F8EDE72948016821F4A0210160016830
:1001400041F480310160016811F4003FFBD0244884
:10015000016821F0F0010160016821F46051016043
:10016000016821F4E06141F480610160016821F4DB
:100170007C114FF4A02241EA0201016019484FF0BE
:10018000010101601548016811F0007FFBD014489F
:10019000016821F0030141F0020101601248016889
:1001A0004FF0100241EA0201016070474FF00F0268
:1001B0000E48016821EA02014FF0010241EA020102
:1001C0000160704700B54FF480335B1EFDD1401EC7
:1001D000F9D15DF804EB70470C10014000100240AB
:1001E0000410024060004242181002400410014016
:04000005080000ED02
:00000001FF
